{
    "abi": [
        {
            "type": "constructor",
            "inputs": [
                {
                    "name": "_name",
                    "type": "string",
                    "internalType": "string"
                },
                {
                    "name": "_symbol",
                    "type": "string",
                    "internalType": "string"
                }
            ],
            "stateMutability": "nonpayable"
        },
        {
            "type": "function",
            "name": "DOMAIN_SEPARATOR",
            "inputs": [],
            "outputs": [
                {
                    "name": "",
                    "type": "bytes32",
                    "internalType": "bytes32"
                }
            ],
            "stateMutability": "view"
        },
        {
            "type": "function",
            "name": "allowance",
            "inputs": [
                {
                    "name": "owner",
                    "type": "address",
                    "internalType": "address"
                },
                {
                    "name": "spender",
                    "type": "address",
                    "internalType": "address"
                }
            ],
            "outputs": [
                {
                    "name": "",
                    "type": "uint256",
                    "internalType": "uint256"
                }
            ],
            "stateMutability": "view"
        },
        {
            "type": "function",
            "name": "approve",
            "inputs": [
                {
                    "name": "spender",
                    "type": "address",
                    "internalType": "address"
                },
                {
                    "name": "value",
                    "type": "uint256",
                    "internalType": "uint256"
                }
            ],
            "outputs": [
                {
                    "name": "",
                    "type": "bool",
                    "internalType": "bool"
                }
            ],
            "stateMutability": "nonpayable"
        },
        {
            "type": "function",
            "name": "balanceOf",
            "inputs": [
                {
                    "name": "account",
                    "type": "address",
                    "internalType": "address"
                }
            ],
            "outputs": [
                {
                    "name": "",
                    "type": "uint256",
                    "internalType": "uint256"
                }
            ],
            "stateMutability": "view"
        },
        {
            "type": "function",
            "name": "balances",
            "inputs": [],
            "outputs": [
                {
                    "name": "amount0",
                    "type": "uint256",
                    "internalType": "uint256"
                },
                {
                    "name": "amount1",
                    "type": "uint256",
                    "internalType": "uint256"
                }
            ],
            "stateMutability": "view"
        },
        {
            "type": "function",
            "name": "decimals",
            "inputs": [],
            "outputs": [
                {
                    "name": "",
                    "type": "uint8",
                    "internalType": "uint8"
                }
            ],
            "stateMutability": "view"
        },
        {
            "type": "function",
            "name": "deposit",
            "inputs": [
                {
                    "name": "_amount0",
                    "type": "uint256",
                    "internalType": "uint256"
                },
                {
                    "name": "_amount1",
                    "type": "uint256",
                    "internalType": "uint256"
                },
                {
                    "name": "_minShares",
                    "type": "uint256",
                    "internalType": "uint256"
                }
            ],
            "outputs": [],
            "stateMutability": "nonpayable"
        },
        {
            "type": "function",
            "name": "eip712Domain",
            "inputs": [],
            "outputs": [
                {
                    "name": "fields",
                    "type": "bytes1",
                    "internalType": "bytes1"
                },
                {
                    "name": "name",
                    "type": "string",
                    "internalType": "string"
                },
                {
                    "name": "version",
                    "type": "string",
                    "internalType": "string"
                },
                {
                    "name": "chainId",
                    "type": "uint256",
                    "internalType": "uint256"
                },
                {
                    "name": "verifyingContract",
                    "type": "address",
                    "internalType": "address"
                },
                {
                    "name": "salt",
                    "type": "bytes32",
                    "internalType": "bytes32"
                },
                {
                    "name": "extensions",
                    "type": "uint256[]",
                    "internalType": "uint256[]"
                }
            ],
            "stateMutability": "view"
        },
        {
            "type": "function",
            "name": "inCaseTokensGetStuck",
            "inputs": [
                {
                    "name": "_token",
                    "type": "address",
                    "internalType": "address"
                }
            ],
            "outputs": [],
            "stateMutability": "nonpayable"
        },
        {
            "type": "function",
            "name": "isCalm",
            "inputs": [],
            "outputs": [
                {
                    "name": "",
                    "type": "bool",
                    "internalType": "bool"
                }
            ],
            "stateMutability": "view"
        },
        {
            "type": "function",
            "name": "name",
            "inputs": [],
            "outputs": [
                {
                    "name": "",
                    "type": "string",
                    "internalType": "string"
                }
            ],
            "stateMutability": "view"
        },
        {
            "type": "function",
            "name": "nonces",
            "inputs": [
                {
                    "name": "owner",
                    "type": "address",
                    "internalType": "address"
                }
            ],
            "outputs": [
                {
                    "name": "",
                    "type": "uint256",
                    "internalType": "uint256"
                }
            ],
            "stateMutability": "view"
        },
        {
            "type": "function",
            "name": "owner",
            "inputs": [],
            "outputs": [
                {
                    "name": "",
                    "type": "address",
                    "internalType": "address"
                }
            ],
            "stateMutability": "view"
        },
        {
            "type": "function",
            "name": "permit",
            "inputs": [
                {
                    "name": "owner",
                    "type": "address",
                    "internalType": "address"
                },
                {
                    "name": "spender",
                    "type": "address",
                    "internalType": "address"
                },
                {
                    "name": "value",
                    "type": "uint256",
                    "internalType": "uint256"
                },
                {
                    "name": "deadline",
                    "type": "uint256",
                    "internalType": "uint256"
                },
                {
                    "name": "v",
                    "type": "uint8",
                    "internalType": "uint8"
                },
                {
                    "name": "r",
                    "type": "bytes32",
                    "internalType": "bytes32"
                },
                {
                    "name": "s",
                    "type": "bytes32",
                    "internalType": "bytes32"
                }
            ],
            "outputs": [],
            "stateMutability": "nonpayable"
        },
        {
            "type": "function",
            "name": "previewDeposit",
            "inputs": [
                {
                    "name": "_amount0",
                    "type": "uint256",
                    "internalType": "uint256"
                },
                {
                    "name": "_amount1",
                    "type": "uint256",
                    "internalType": "uint256"
                }
            ],
            "outputs": [
                {
                    "name": "shares",
                    "type": "uint256",
                    "internalType": "uint256"
                },
                {
                    "name": "amount0",
                    "type": "uint256",
                    "internalType": "uint256"
                },
                {
                    "name": "amount1",
                    "type": "uint256",
                    "internalType": "uint256"
                },
                {
                    "name": "fee0",
                    "type": "uint256",
                    "internalType": "uint256"
                },
                {
                    "name": "fee1",
                    "type": "uint256",
                    "internalType": "uint256"
                }
            ],
            "stateMutability": "view"
        },
        {
            "type": "function",
            "name": "previewWithdraw",
            "inputs": [
                {
                    "name": "_shares",
                    "type": "uint256",
                    "internalType": "uint256"
                }
            ],
            "outputs": [
                {
                    "name": "amount0",
                    "type": "uint256",
                    "internalType": "uint256"
                },
                {
                    "name": "amount1",
                    "type": "uint256",
                    "internalType": "uint256"
                }
            ],
            "stateMutability": "view"
        },
        {
            "type": "function",
            "name": "renounceOwnership",
            "inputs": [],
            "outputs": [],
            "stateMutability": "nonpayable"
        },
        {
            "type": "function",
            "name": "setStrategyAddress",
            "inputs": [
                {
                    "name": "_strategy",
                    "type": "address",
                    "internalType": "address"
                }
            ],
            "outputs": [],
            "stateMutability": "nonpayable"
        },
        {
            "type": "function",
            "name": "strategy",
            "inputs": [],
            "outputs": [
                {
                    "name": "",
                    "type": "address",
                    "internalType": "contract IStrategy"
                }
            ],
            "stateMutability": "view"
        },
        {
            "type": "function",
            "name": "swapFee",
            "inputs": [],
            "outputs": [
                {
                    "name": "",
                    "type": "uint256",
                    "internalType": "uint256"
                }
            ],
            "stateMutability": "view"
        },
        {
            "type": "function",
            "name": "symbol",
            "inputs": [],
            "outputs": [
                {
                    "name": "",
                    "type": "string",
                    "internalType": "string"
                }
            ],
            "stateMutability": "view"
        },
        {
            "type": "function",
            "name": "totalSupply",
            "inputs": [],
            "outputs": [
                {
                    "name": "",
                    "type": "uint256",
                    "internalType": "uint256"
                }
            ],
            "stateMutability": "view"
        },
        {
            "type": "function",
            "name": "transfer",
            "inputs": [
                {
                    "name": "to",
                    "type": "address",
                    "internalType": "address"
                },
                {
                    "name": "value",
                    "type": "uint256",
                    "internalType": "uint256"
                }
            ],
            "outputs": [
                {
                    "name": "",
                    "type": "bool",
                    "internalType": "bool"
                }
            ],
            "stateMutability": "nonpayable"
        },
        {
            "type": "function",
            "name": "transferFrom",
            "inputs": [
                {
                    "name": "from",
                    "type": "address",
                    "internalType": "address"
                },
                {
                    "name": "to",
                    "type": "address",
                    "internalType": "address"
                },
                {
                    "name": "value",
                    "type": "uint256",
                    "internalType": "uint256"
                }
            ],
            "outputs": [
                {
                    "name": "",
                    "type": "bool",
                    "internalType": "bool"
                }
            ],
            "stateMutability": "nonpayable"
        },
        {
            "type": "function",
            "name": "transferOwnership",
            "inputs": [
                {
                    "name": "newOwner",
                    "type": "address",
                    "internalType": "address"
                }
            ],
            "outputs": [],
            "stateMutability": "nonpayable"
        },
        {
            "type": "function",
            "name": "want",
            "inputs": [],
            "outputs": [
                {
                    "name": "_want",
                    "type": "address",
                    "internalType": "address"
                }
            ],
            "stateMutability": "view"
        },
        {
            "type": "function",
            "name": "wants",
            "inputs": [],
            "outputs": [
                {
                    "name": "token0",
                    "type": "address",
                    "internalType": "address"
                },
                {
                    "name": "token1",
                    "type": "address",
                    "internalType": "address"
                }
            ],
            "stateMutability": "view"
        },
        {
            "type": "function",
            "name": "withdraw",
            "inputs": [
                {
                    "name": "_shares",
                    "type": "uint256",
                    "internalType": "uint256"
                },
                {
                    "name": "_minAmount0",
                    "type": "uint256",
                    "internalType": "uint256"
                },
                {
                    "name": "_minAmount1",
                    "type": "uint256",
                    "internalType": "uint256"
                }
            ],
            "outputs": [],
            "stateMutability": "nonpayable"
        },
        {
            "type": "function",
            "name": "withdrawAll",
            "inputs": [
                {
                    "name": "_minAmount0",
                    "type": "uint256",
                    "internalType": "uint256"
                },
                {
                    "name": "_minAmount1",
                    "type": "uint256",
                    "internalType": "uint256"
                }
            ],
            "outputs": [],
            "stateMutability": "nonpayable"
        },
        {
            "type": "event",
            "name": "Approval",
            "inputs": [
                {
                    "name": "owner",
                    "type": "address",
                    "indexed": true,
                    "internalType": "address"
                },
                {
                    "name": "spender",
                    "type": "address",
                    "indexed": true,
                    "internalType": "address"
                },
                {
                    "name": "value",
                    "type": "uint256",
                    "indexed": false,
                    "internalType": "uint256"
                }
            ],
            "anonymous": false
        },
        {
            "type": "event",
            "name": "Deposit",
            "inputs": [
                {
                    "name": "user",
                    "type": "address",
                    "indexed": true,
                    "internalType": "address"
                },
                {
                    "name": "shares",
                    "type": "uint256",
                    "indexed": false,
                    "internalType": "uint256"
                },
                {
                    "name": "amount0",
                    "type": "uint256",
                    "indexed": false,
                    "internalType": "uint256"
                },
                {
                    "name": "amount1",
                    "type": "uint256",
                    "indexed": false,
                    "internalType": "uint256"
                },
                {
                    "name": "fee0",
                    "type": "uint256",
                    "indexed": false,
                    "internalType": "uint256"
                },
                {
                    "name": "fee1",
                    "type": "uint256",
                    "indexed": false,
                    "internalType": "uint256"
                }
            ],
            "anonymous": false
        },
        {
            "type": "event",
            "name": "EIP712DomainChanged",
            "inputs": [],
            "anonymous": false
        },
        {
            "type": "event",
            "name": "OwnershipTransferred",
            "inputs": [
                {
                    "name": "previousOwner",
                    "type": "address",
                    "indexed": true,
                    "internalType": "address"
                },
                {
                    "name": "newOwner",
                    "type": "address",
                    "indexed": true,
                    "internalType": "address"
                }
            ],
            "anonymous": false
        },
        {
            "type": "event",
            "name": "Transfer",
            "inputs": [
                {
                    "name": "from",
                    "type": "address",
                    "indexed": true,
                    "internalType": "address"
                },
                {
                    "name": "to",
                    "type": "address",
                    "indexed": true,
                    "internalType": "address"
                },
                {
                    "name": "value",
                    "type": "uint256",
                    "indexed": false,
                    "internalType": "uint256"
                }
            ],
            "anonymous": false
        },
        {
            "type": "event",
            "name": "Withdraw",
            "inputs": [
                {
                    "name": "user",
                    "type": "address",
                    "indexed": true,
                    "internalType": "address"
                },
                {
                    "name": "shares",
                    "type": "uint256",
                    "indexed": false,
                    "internalType": "uint256"
                },
                {
                    "name": "amount0",
                    "type": "uint256",
                    "indexed": false,
                    "internalType": "uint256"
                },
                {
                    "name": "amount1",
                    "type": "uint256",
                    "indexed": false,
                    "internalType": "uint256"
                }
            ],
            "anonymous": false
        },
        {
            "type": "error",
            "name": "AddressEmptyCode",
            "inputs": [
                {
                    "name": "target",
                    "type": "address",
                    "internalType": "address"
                }
            ]
        },
        {
            "type": "error",
            "name": "AddressInsufficientBalance",
            "inputs": [
                {
                    "name": "account",
                    "type": "address",
                    "internalType": "address"
                }
            ]
        },
        {
            "type": "error",
            "name": "ECDSAInvalidSignature",
            "inputs": []
        },
        {
            "type": "error",
            "name": "ECDSAInvalidSignatureLength",
            "inputs": [
                {
                    "name": "length",
                    "type": "uint256",
                    "internalType": "uint256"
                }
            ]
        },
        {
            "type": "error",
            "name": "ECDSAInvalidSignatureS",
            "inputs": [
                {
                    "name": "s",
                    "type": "bytes32",
                    "internalType": "bytes32"
                }
            ]
        },
        {
            "type": "error",
            "name": "ERC20InsufficientAllowance",
            "inputs": [
                {
                    "name": "spender",
                    "type": "address",
                    "internalType": "address"
                },
                {
                    "name": "allowance",
                    "type": "uint256",
                    "internalType": "uint256"
                },
                {
                    "name": "needed",
                    "type": "uint256",
                    "internalType": "uint256"
                }
            ]
        },
        {
            "type": "error",
            "name": "ERC20InsufficientBalance",
            "inputs": [
                {
                    "name": "sender",
                    "type": "address",
                    "internalType": "address"
                },
                {
                    "name": "balance",
                    "type": "uint256",
                    "internalType": "uint256"
                },
                {
                    "name": "needed",
                    "type": "uint256",
                    "internalType": "uint256"
                }
            ]
        },
        {
            "type": "error",
            "name": "ERC20InvalidApprover",
            "inputs": [
                {
                    "name": "approver",
                    "type": "address",
                    "internalType": "address"
                }
            ]
        },
        {
            "type": "error",
            "name": "ERC20InvalidReceiver",
            "inputs": [
                {
                    "name": "receiver",
                    "type": "address",
                    "internalType": "address"
                }
            ]
        },
        {
            "type": "error",
            "name": "ERC20InvalidSender",
            "inputs": [
                {
                    "name": "sender",
                    "type": "address",
                    "internalType": "address"
                }
            ]
        },
        {
            "type": "error",
            "name": "ERC20InvalidSpender",
            "inputs": [
                {
                    "name": "spender",
                    "type": "address",
                    "internalType": "address"
                }
            ]
        },
        {
            "type": "error",
            "name": "ERC2612ExpiredSignature",
            "inputs": [
                {
                    "name": "deadline",
                    "type": "uint256",
                    "internalType": "uint256"
                }
            ]
        },
        {
            "type": "error",
            "name": "ERC2612InvalidSigner",
            "inputs": [
                {
                    "name": "signer",
                    "type": "address",
                    "internalType": "address"
                },
                {
                    "name": "owner",
                    "type": "address",
                    "internalType": "address"
                }
            ]
        },
        {
            "type": "error",
            "name": "FailedInnerCall",
            "inputs": []
        },
        {
            "type": "error",
            "name": "InvalidAccountNonce",
            "inputs": [
                {
                    "name": "account",
                    "type": "address",
                    "internalType": "address"
                },
                {
                    "name": "currentNonce",
                    "type": "uint256",
                    "internalType": "uint256"
                }
            ]
        },
        {
            "type": "error",
            "name": "InvalidShortString",
            "inputs": []
        },
        {
            "type": "error",
            "name": "NoShares",
            "inputs": []
        },
        {
            "type": "error",
            "name": "NotEnoughTokens",
            "inputs": []
        },
        {
            "type": "error",
            "name": "OwnableInvalidOwner",
            "inputs": [
                {
                    "name": "owner",
                    "type": "address",
                    "internalType": "address"
                }
            ]
        },
        {
            "type": "error",
            "name": "OwnableUnauthorizedAccount",
            "inputs": [
                {
                    "name": "account",
                    "type": "address",
                    "internalType": "address"
                }
            ]
        },
        {
            "type": "error",
            "name": "ReentrancyGuardReentrantCall",
            "inputs": []
        },
        {
            "type": "error",
            "name": "SafeERC20FailedOperation",
            "inputs": [
                {
                    "name": "token",
                    "type": "address",
                    "internalType": "address"
                }
            ]
        },
        {
            "type": "error",
            "name": "StringTooLong",
            "inputs": [
                {
                    "name": "str",
                    "type": "string",
                    "internalType": "string"
                }
            ]
        },
        {
            "type": "error",
            "name": "TooMuchSlippage",
            "inputs": []
        }
    ],
    "bytecode": {
        "object": "0x6101606040523480156200001257600080fd5b5060405162002ca538038062002ca5833981016040819052620000359162000313565b338280604051806040016040528060018152602001603160f81b815250858581600390816200006591906200040e565b5060046200007482826200040e565b50620000869150839050600562000178565b610120526200009781600662000178565b61014052815160208084019190912060e052815190820120610100524660a0526200012560e05161010051604080517f8b73c3c69bb8fe3d512ecc4cf759cc79239f7b179b0ffacaa9a75d522b39400f60208201529081019290925260608201524660808201523060a082015260009060c00160405160208183030381529060405280519060200120905090565b60805250503060c052506001600160a01b0381166200015f57604051631e4fbdf760e01b8152600060048201526024015b60405180910390fd5b6200016a81620001b1565b505060016009555062000534565b60006020835110156200019857620001908362000203565b9050620001ab565b81620001a584826200040e565b5060ff90505b92915050565b600880546001600160a01b038381166001600160a01b0319831681179093556040519116919082907f8be0079c531659141344cd1fd0a4f28419497f9722a3daafe3b4186f6b6457e090600090a35050565b600080829050601f8151111562000231578260405163305a27a960e01b8152600401620001569190620004da565b80516200023e826200050f565b179392505050565b634e487b7160e01b600052604160045260246000fd5b60005b83811015620002795781810151838201526020016200025f565b50506000910152565b600082601f8301126200029457600080fd5b81516001600160401b0380821115620002b157620002b162000246565b604051601f8301601f19908116603f01168101908282118183101715620002dc57620002dc62000246565b81604052838152866020858801011115620002f657600080fd5b620003098460208301602089016200025c565b9695505050505050565b600080604083850312156200032757600080fd5b82516001600160401b03808211156200033f57600080fd5b6200034d8683870162000282565b935060208501519150808211156200036457600080fd5b50620003738582860162000282565b9150509250929050565b600181811c908216806200039257607f821691505b602082108103620003b357634e487b7160e01b600052602260045260246000fd5b50919050565b601f82111562000409576000816000526020600020601f850160051c81016020861015620003e45750805b601f850160051c820191505b818110156200040557828155600101620003f0565b5050505b505050565b81516001600160401b038111156200042a576200042a62000246565b62000442816200043b84546200037d565b84620003b9565b602080601f8311600181146200047a5760008415620004615750858301515b600019600386901b1c1916600185901b17855562000405565b600085815260208120601f198616915b82811015620004ab578886015182559484019460019091019084016200048a565b5085821015620004ca5787850151600019600388901b60f8161c191681555b5050505050600190811b01905550565b6020815260008251806020840152620004fb8160408501602087016200025c565b601f01601f19169190910160400192915050565b80516020808301519190811015620003b35760001960209190910360031b1b16919050565b60805160a05160c05160e0516101005161012051610140516127166200058f6000396000611b6901526000611b3c01526000611a9201526000611a6a015260006119c5015260006119ef01526000611a1901526127166000f3fe608060405234801561001057600080fd5b50600436106101ce5760003560e01c80637a7af70d116101045780639bdde46b116100a2578063d505accf11610071578063d505accf146103ff578063dd62ed3e14610412578063def68a9c1461044b578063f2fde38b1461045e57600080fd5b80639bdde46b146103be578063a41fe49f146103c6578063a8c62e76146103d9578063a9059cbb146103ec57600080fd5b80637ecebe00116100de5780637ecebe001461037757806384b0196e1461038a5780638da5cb5b146103a557806395d89b41146103b657600080fd5b80637a7af70d146103215780637aff49d71461035c5780637bb98a681461036f57600080fd5b806324cfba9f1161017157806354cf2aeb1161014b57806354cf2aeb146102c057806365844934146102c857806370a08231146102f0578063715018a61461031957600080fd5b806324cfba9f14610296578063313ce567146102a95780633644e515146102b857600080fd5b80630a28a477116101ad5780630a28a4771461022957806318160ddd146102515780631f1fcd511461026357806323b872dd1461028357600080fd5b8062aeef8a146101d357806306fdde03146101e8578063095ea7b314610206575b600080fd5b6101e66101e13660046122a7565b610471565b005b6101f06108d2565b6040516101fd9190612323565b60405180910390f35b61021961021436600461234b565b610964565b60405190151581526020016101fd565b61023c610237366004612377565b61097e565b604080519283526020830191909152016101fd565b6002545b6040519081526020016101fd565b61026b6109d3565b6040516001600160a01b0390911681526020016101fd565b610219610291366004612390565b610a46565b6101e66102a43660046123d1565b610a6c565b604051601281526020016101fd565b610255610a96565b610255610aa0565b6102d0610b0e565b604080516001600160a01b039384168152929091166020830152016101fd565b6102556102fe3660046123d1565b6001600160a01b031660009081526020819052604090205490565b6101e6610c07565b61033461032f3660046123ee565b610c1b565b604080519586526020860194909452928401919091526060830152608082015260a0016101fd565b6101e661036a3660046123ee565b610dc3565b61023c610de2565b6102556103853660046123d1565b610e59565b610392610e77565b6040516101fd9796959493929190612410565b6008546001600160a01b031661026b565b6101f0610ebd565b610219610ecc565b6101e66103d43660046122a7565b610f3a565b600a5461026b906001600160a01b031681565b6102196103fa36600461234b565b611144565b6101e661040d3660046124a9565b611152565b610255610420366004612520565b6001600160a01b03918216600090815260016020908152604080832093909416825291909152205490565b6101e66104593660046123d1565b611291565b6101e661046c3660046123d1565b61131a565b610479611358565b600080610484610b0e565b915091506104b0604051806040016040528060068152602001650746f6b656e360d41b81525083611382565b600a60009054906101000a90046001600160a01b03166001600160a01b03166317dd7a726040518163ffffffff1660e01b8152600401600060405180830381600087803b15801561050057600080fd5b505af1158015610514573d6000803e3d6000fd5b50505050600080610523610de2565b915091506000600a60009054906101000a90046001600160a01b03166001600160a01b031663a035b1fe6040518163ffffffff1660e01b8152600401602060405180830381865afa15801561057c573d6000803e3d6000fd5b505050506040513d601f19601f820116820180604052508101906105a09190612559565b90506000806000806105bd858d8d8a8a6105b8610aa0565b6113c7565b93509350935093508b8411806105d257508a83115b156105f0576040516308aeed0f60e21b815260040160405180910390fd5b61062e6040518060400160405280601f81526020017f6265666f7265207472616e736665722066726f6d2e2e2e2e2e2e2e2e2e2e2e008152506117c1565b61065a6040518060400160405280600a81526020016936b9b39739b2b73232b960b11b81525033611382565b831561067c57600a5461067c906001600160a01b038b81169133911687611804565b821561069e57600a5461069e906001600160a01b038a81169133911686611804565b6000806106a9610de2565b90925090506106b88983612588565b95506106c48882612588565b94505050600a60009054906101000a90046001600160a01b03166001600160a01b031663d0e30db06040518163ffffffff1660e01b8152600401600060405180830381600087803b15801561071857600080fd5b505af115801561072c573d6000803e3d6000fd5b5050505060006a0c097ce7bc90715b34b9f160241b86848761074e9190612588565b610758919061259b565b61076291906125b2565b61076c8386612588565b61077691906125d4565b9050600061078360025490565b905080156107ff5761079583896125d4565b6a0c097ce7bc90715b34b9f160241b6001818a6107b2898f6125d4565b6107bc919061259b565b6107c691906125d4565b6107d09190612588565b6107da91906125b2565b6107e491906125d4565b6107ee828461259b565b6107f891906125b2565b915061081b565b61080b6103e883612588565b915061081b61dead6103e8611871565b8b82101561083c5760405163fa6ad35560e01b815260040160405180910390fd5b8160000361085d5760405163b317087b60e01b815260040160405180910390fd5b6108673383611871565b6040805183815260208101889052908101869052606081018590526080810184905233907ff943cf10ef4d1e3239f4716ddecdf546e8ba8ab0e41deafd9a71a99936827e459060a00160405180910390a250505050505050505050506108cd6001600955565b505050565b6060600380546108e1906125e7565b80601f016020809104026020016040519081016040528092919081815260200182805461090d906125e7565b801561095a5780601f1061092f5761010080835404028352916020019161095a565b820191906000526020600020905b81548152906001019060200180831161093d57829003601f168201915b5050505050905090565b6000336109728185856118a7565b60019150505b92915050565b60008060008061098c610de2565b91509150600061099b60025490565b9050806109a8878561259b565b6109b291906125b2565b9450806109bf878461259b565b6109c991906125b2565b9350505050915091565b600a54604080516316f0115b60e01b815290516000926001600160a01b0316916316f0115b9160048083019260209291908290030181865afa158015610a1d573d6000803e3d6000fd5b505050506040513d601f19601f82011682018060405250810190610a419190612621565b905090565b600033610a548582856118b4565b610a5f85858561192c565b60019150505b9392505050565b610a7461198b565b600a80546001600160a01b0319166001600160a01b0392909216919091179055565b6000610a416119b8565b600a54604080516354cf2aeb60e01b815290516000926001600160a01b0316916354cf2aeb9160048083019260209291908290030181865afa158015610aea573d6000803e3d6000fd5b505050506040513d601f19601f82011682018060405250810190610a419190612559565b600080600a60009054906101000a90046001600160a01b03166001600160a01b0316635ee167c06040518163ffffffff1660e01b8152600401602060405180830381865afa158015610b64573d6000803e3d6000fd5b505050506040513d601f19601f82011682018060405250810190610b889190612621565b9150600a60009054906101000a90046001600160a01b03166001600160a01b031663877562b66040518163ffffffff1660e01b8152600401602060405180830381865afa158015610bdd573d6000803e3d6000fd5b505050506040513d601f19601f82011682018060405250810190610c019190612621565b90509091565b610c0f61198b565b610c196000611ae3565b565b600080600080600080600a60009054906101000a90046001600160a01b03166001600160a01b031663a035b1fe6040518163ffffffff1660e01b8152600401602060405180830381865afa158015610c77573d6000803e3d6000fd5b505050506040513d601f19601f82011682018060405250810190610c9b9190612559565b9050600080610ca8610de2565b91509150610cbc838b8b85856105b8610aa0565b929950909750955093506000610cd160025490565b905080600003610ce2578a92508991505b6a0c097ce7bc90715b34b9f160241b84610cfc888b612588565b610d06919061259b565b610d1091906125b2565b610d1a8689612588565b610d2491906125d4565b98508015610da6576000610d3886846125d4565b6a0c097ce7bc90715b34b9f160241b60018188610d558c8a6125d4565b610d5f919061259b565b610d6991906125d4565b610d739190612588565b610d7d91906125b2565b610d8791906125d4565b905080610d94838c61259b565b610d9e91906125b2565b995050610db5565b610db26103e88a612588565b98505b505050509295509295909350565b33600090815260208190526040902054610dde908383610f3a565b5050565b600a5460408051630f77314d60e31b8152815160009384936001600160a01b0390911692637bb98a6892600480830193928290030181865afa158015610e2c573d6000803e3d6000fd5b505050506040513d601f19601f82011682018060405250810190610e50919061263e565b90939092509050565b6001600160a01b038116600090815260076020526040812054610978565b600060608060008060006060610e8b611b35565b610e93611b62565b60408051600080825260208201909252600f60f81b9b939a50919850469750309650945092509050565b6060600480546108e1906125e7565b600a5460408051639bdde46b60e01b815290516000926001600160a01b031691639bdde46b9160048083019260209291908290030181865afa158015610f16573d6000803e3d6000fd5b505050506040513d601f19601f82011682018060405250810190610a419190612662565b82600003610f5b5760405163b317087b60e01b815260040160405180910390fd5b600a60009054906101000a90046001600160a01b03166001600160a01b03166317dd7a726040518163ffffffff1660e01b8152600401600060405180830381600087803b158015610fab57600080fd5b505af1158015610fbf573d6000803e3d6000fd5b505050506000610fce60025490565b9050610fda3385611b8f565b600080610fe5610de2565b9092509050600083610ff7888561259b565b61100191906125b2565b9050600084611010898561259b565b61101a91906125b2565b600a54604051630441a3e760e41b815260048101859052602481018390529192506001600160a01b03169063441a3e7090604401600060405180830381600087803b15801561106857600080fd5b505af115801561107c573d6000803e3d6000fd5b505050508682108061108d57508581105b8061109f57508115801561109f575080155b156110bd5760405163fa6ad35560e01b815260040160405180910390fd5b6000806110c8610b0e565b90925090506110e16001600160a01b0383163386611bc5565b6110f56001600160a01b0382163385611bc5565b604080518b81526020810186905290810184905233907f02f25270a4d87bea75db541cdfe559334a275b4a233520ed6c0a2429667cca949060600160405180910390a250505050505050505050565b60003361097281858561192c565b8342111561117b5760405163313c898160e11b8152600481018590526024015b60405180910390fd5b60007f6e71edae12b1b97f4d1f60370fef10105fa2faae0126114a169c64845d6126c98888886111c88c6001600160a01b0316600090815260076020526040902080546001810190915590565b6040805160208101969096526001600160a01b0394851690860152929091166060840152608083015260a082015260c0810186905260e001604051602081830303815290604052805190602001209050600061122382611bf6565b9050600061123382878787611c23565b9050896001600160a01b0316816001600160a01b03161461127a576040516325c0072360e11b81526001600160a01b0380831660048301528b166024820152604401611172565b6112858a8a8a6118a7565b50505050505050505050565b61129961198b565b6040516370a0823160e01b81523060048201526000906001600160a01b038316906370a0823190602401602060405180830381865afa1580156112e0573d6000803e3d6000fd5b505050506040513d601f19601f820116820180604052508101906113049190612559565b9050610dde6001600160a01b0383163383611bc5565b61132261198b565b6001600160a01b03811661134c57604051631e4fbdf760e01b815260006004820152602401611172565b61135581611ae3565b50565b60026009540361137b57604051633ee5aeb560e01b815260040160405180910390fd5b6002600955565b610dde8282604051602401611398929190612684565b60408051601f198184030181529190526020810180516001600160e01b031663319af33360e01b179052611c51565b6000808080861580156113d8575085155b156113ee575087925086915060009050806117b4565b60006a0c097ce7bc90715b34b9f160241b6114098c8a61259b565b61141391906125b2565b9050808710156115b95760008161142a8b8a6125d4565b1161143657600061146f565b8b6a0c097ce7bc90715b34b9f160241b836114518d8c6125d4565b61145b9190612588565b611465919061259b565b61146f91906125b2565b90508a8111156114bb578a95506a0c097ce7bc90715b34b9f160241b8c6114968884612588565b6114a0919061259b565b6114aa91906125b2565b6114b4908b612588565b94506114c2565b8095508994505b60006114ce8984612588565b8b106114e3576114de8984612588565b6114e5565b8a5b905060006a0c097ce7bc90715b34b9f160241b8e61150485600261259b565b61150e919061259b565b61151891906125b2565b826115238c876125d4565b61152d91906125d4565b61153791906125d4565b6115418f8561259b565b6115596a0c097ce7bc90715b34b9f160241b8761259b565b61156391906125d4565b61156d91906125b2565b9050670de0b6b3a76400006a0c097ce7bc90715b34b9f160241b611591838c61259b565b61159b91906125b2565b6115a5908461259b565b6115af91906125b2565b94505050506117b2565b6000876a0c097ce7bc90715b34b9f160241b6115d58e8e61259b565b6115df91906125b2565b6115e990846125d4565b116115f557600061162d565b876a0c097ce7bc90715b34b9f160241b61160f8e8e61259b565b61161991906125b2565b61162390846125d4565b61162d9190612588565b905089811115611679578b6a0c097ce7bc90715b34b9f160241b6116518c84612588565b61165b919061259b565b61166591906125b2565b61166f908c612588565b9550899450611680565b8a95508094505b60008c6a0c097ce7bc90715b34b9f160241b61169c858c612588565b6116a6919061259b565b6116b091906125b2565b8c106116e9578c6a0c097ce7bc90715b34b9f160241b6116d0858c612588565b6116da919061259b565b6116e491906125b2565b6116eb565b8b5b905060006116fa83600261259b565b6a0c097ce7bc90715b34b9f160241b8f84611715919061259b565b61171f91906125b2565b6117298c876125d4565b61173391906125d4565b61173d91906125d4565b6a0c097ce7bc90715b34b9f160241b611756858d6125d4565b611760919061259b565b61176a91906125b2565b9050670de0b6b3a76400006a0c097ce7bc90715b34b9f160241b61178e838c61259b565b61179891906125b2565b6117a2908461259b565b6117ac91906125b2565b95505050505b505b9650965096509692505050565b611355816040516024016117d59190612323565b60408051601f198184030181529190526020810180516001600160e01b031663104c13eb60e21b179052611c51565b6040516001600160a01b03848116602483015283811660448301526064820183905261186b9186918216906323b872dd906084015b604051602081830303815290604052915060e01b6020820180516001600160e01b038381831617835250505050611c5a565b50505050565b6001600160a01b03821661189b5760405163ec442f0560e01b815260006004820152602401611172565b610dde60008383611cbd565b6108cd8383836001611de7565b6001600160a01b03838116600090815260016020908152604080832093861683529290522054600019811461186b578181101561191d57604051637dc7a0d960e11b81526001600160a01b03841660048201526024810182905260448101839052606401611172565b61186b84848484036000611de7565b6001600160a01b03831661195657604051634b637e8f60e11b815260006004820152602401611172565b6001600160a01b0382166119805760405163ec442f0560e01b815260006004820152602401611172565b6108cd838383611cbd565b6008546001600160a01b03163314610c195760405163118cdaa760e01b8152336004820152602401611172565b6000306001600160a01b037f000000000000000000000000000000000000000000000000000000000000000016148015611a1157507f000000000000000000000000000000000000000000000000000000000000000046145b15611a3b57507f000000000000000000000000000000000000000000000000000000000000000090565b610a41604080517f8b73c3c69bb8fe3d512ecc4cf759cc79239f7b179b0ffacaa9a75d522b39400f60208201527f0000000000000000000000000000000000000000000000000000000000000000918101919091527f000000000000000000000000000000000000000000000000000000000000000060608201524660808201523060a082015260009060c00160405160208183030381529060405280519060200120905090565b600880546001600160a01b038381166001600160a01b0319831681179093556040519116919082907f8be0079c531659141344cd1fd0a4f28419497f9722a3daafe3b4186f6b6457e090600090a35050565b6060610a417f00000000000000000000000000000000000000000000000000000000000000006005611ebc565b6060610a417f00000000000000000000000000000000000000000000000000000000000000006006611ebc565b6001600160a01b038216611bb957604051634b637e8f60e11b815260006004820152602401611172565b610dde82600083611cbd565b6040516001600160a01b038381166024830152604482018390526108cd91859182169063a9059cbb90606401611839565b6000610978611c036119b8565b8360405161190160f01b8152600281019290925260228201526042902090565b600080600080611c3588888888611f67565b925092509250611c458282612036565b50909695505050505050565b611355816120ef565b6000611c6f6001600160a01b03841683612110565b90508051600014158015611c94575080806020019051810190611c929190612662565b155b156108cd57604051635274afe760e01b81526001600160a01b0384166004820152602401611172565b6001600160a01b038316611ce8578060026000828254611cdd91906125d4565b90915550611d5a9050565b6001600160a01b03831660009081526020819052604090205481811015611d3b5760405163391434e360e21b81526001600160a01b03851660048201526024810182905260448101839052606401611172565b6001600160a01b03841660009081526020819052604090209082900390555b6001600160a01b038216611d7657600280548290039055611d95565b6001600160a01b03821660009081526020819052604090208054820190555b816001600160a01b0316836001600160a01b03167fddf252ad1be2c89b69c2b068fc378daa952ba7f163c4a11628f55a4df523b3ef83604051611dda91815260200190565b60405180910390a3505050565b6001600160a01b038416611e115760405163e602df0560e01b815260006004820152602401611172565b6001600160a01b038316611e3b57604051634a1406b160e11b815260006004820152602401611172565b6001600160a01b038085166000908152600160209081526040808320938716835292905220829055801561186b57826001600160a01b0316846001600160a01b03167f8c5be1e5ebec7d5bd14f71427d1e84f3dd0314c0f7b2291e5b200ac8c7c3b92584604051611eae91815260200190565b60405180910390a350505050565b606060ff8314611ed657611ecf8361211e565b9050610978565b818054611ee2906125e7565b80601f0160208091040260200160405190810160405280929190818152602001828054611f0e906125e7565b8015611f5b5780601f10611f3057610100808354040283529160200191611f5b565b820191906000526020600020905b815481529060010190602001808311611f3e57829003601f168201915b50505050509050610978565b600080807f7fffffffffffffffffffffffffffffff5d576e7357a4501ddfe92f46681b20a0841115611fa2575060009150600390508261202c565b604080516000808252602082018084528a905260ff891692820192909252606081018790526080810186905260019060a0016020604051602081039080840390855afa158015611ff6573d6000803e3d6000fd5b5050604051601f1901519150506001600160a01b0381166120225750600092506001915082905061202c565b9250600091508190505b9450945094915050565b600082600381111561204a5761204a6126ae565b03612053575050565b6001826003811115612067576120676126ae565b036120855760405163f645eedf60e01b815260040160405180910390fd5b6002826003811115612099576120996126ae565b036120ba5760405163fce698f760e01b815260048101829052602401611172565b60038260038111156120ce576120ce6126ae565b03610dde576040516335e2f38360e21b815260048101829052602401611172565b80516a636f6e736f6c652e6c6f67602083016000808483855afa5050505050565b6060610a658383600061215d565b6060600061212b836121fa565b604080516020808252818301909252919250600091906020820181803683375050509182525060208101929092525090565b6060814710156121825760405163cd78605960e01b8152306004820152602401611172565b600080856001600160a01b0316848660405161219e91906126c4565b60006040518083038185875af1925050503d80600081146121db576040519150601f19603f3d011682016040523d82523d6000602084013e6121e0565b606091505b50915091506121f0868383612222565b9695505050505050565b600060ff8216601f81111561097857604051632cd44ac360e21b815260040160405180910390fd5b606082612237576122328261227e565b610a65565b815115801561224e57506001600160a01b0384163b155b1561227757604051639996b31560e01b81526001600160a01b0385166004820152602401611172565b5080610a65565b80511561228e5780518082602001fd5b604051630a12f52160e11b815260040160405180910390fd5b6000806000606084860312156122bc57600080fd5b505081359360208301359350604090920135919050565b60005b838110156122ee5781810151838201526020016122d6565b50506000910152565b6000815180845261230f8160208601602086016122d3565b601f01601f19169290920160200192915050565b602081526000610a6560208301846122f7565b6001600160a01b038116811461135557600080fd5b6000806040838503121561235e57600080fd5b823561236981612336565b946020939093013593505050565b60006020828403121561238957600080fd5b5035919050565b6000806000606084860312156123a557600080fd5b83356123b081612336565b925060208401356123c081612336565b929592945050506040919091013590565b6000602082840312156123e357600080fd5b8135610a6581612336565b6000806040838503121561240157600080fd5b50508035926020909101359150565b60ff60f81b881681526000602060e0602084015261243160e084018a6122f7565b8381036040850152612443818a6122f7565b606085018990526001600160a01b038816608086015260a0850187905284810360c08601528551808252602080880193509091019060005b818110156124975783518352928401929184019160010161247b565b50909c9b505050505050505050505050565b600080600080600080600060e0888a0312156124c457600080fd5b87356124cf81612336565b965060208801356124df81612336565b95506040880135945060608801359350608088013560ff8116811461250357600080fd5b9699959850939692959460a0840135945060c09093013592915050565b6000806040838503121561253357600080fd5b823561253e81612336565b9150602083013561254e81612336565b809150509250929050565b60006020828403121561256b57600080fd5b5051919050565b634e487b7160e01b600052601160045260246000fd5b8181038181111561097857610978612572565b808202811582820484141761097857610978612572565b6000826125cf57634e487b7160e01b600052601260045260246000fd5b500490565b8082018082111561097857610978612572565b600181811c908216806125fb57607f821691505b60208210810361261b57634e487b7160e01b600052602260045260246000fd5b50919050565b60006020828403121561263357600080fd5b8151610a6581612336565b6000806040838503121561265157600080fd5b505080516020909101519092909150565b60006020828403121561267457600080fd5b81518015158114610a6557600080fd5b60408152600061269760408301856122f7565b905060018060a01b03831660208301529392505050565b634e487b7160e01b600052602160045260246000fd5b600082516126d68184602087016122d3565b919091019291505056fea26469706673582212204bd05981665a00bf2bbcc8b3a41899419837c6f06c76f078603996d62015ca1b64736f6c63430008170033",
        "linkReferences": {}
    },
    "methodIdentifiers": {
        "DOMAIN_SEPARATOR()": "3644e515",
        "allowance(address,address)": "dd62ed3e",
        "approve(address,uint256)": "095ea7b3",
        "balanceOf(address)": "70a08231",
        "balances()": "7bb98a68",
        "decimals()": "313ce567",
        "deposit(uint256,uint256,uint256)": "00aeef8a",
        "eip712Domain()": "84b0196e",
        "inCaseTokensGetStuck(address)": "def68a9c",
        "isCalm()": "9bdde46b",
        "name()": "06fdde03",
        "nonces(address)": "7ecebe00",
        "owner()": "8da5cb5b",
        "permit(address,address,uint256,uint256,uint8,bytes32,bytes32)": "d505accf",
        "previewDeposit(uint256,uint256)": "7a7af70d",
        "previewWithdraw(uint256)": "0a28a477",
        "renounceOwnership()": "715018a6",
        "setStrategyAddress(address)": "24cfba9f",
        "strategy()": "a8c62e76",
        "swapFee()": "54cf2aeb",
        "symbol()": "95d89b41",
        "totalSupply()": "18160ddd",
        "transfer(address,uint256)": "a9059cbb",
        "transferFrom(address,address,uint256)": "23b872dd",
        "transferOwnership(address)": "f2fde38b",
        "want()": "1f1fcd51",
        "wants()": "65844934",
        "withdraw(uint256,uint256,uint256)": "a41fe49f",
        "withdrawAll(uint256,uint256)": "7aff49d7"
    },
    "id": 49
}